{
  "transactions": [
    {
      "hash": null,
      "transactionType": "CALL",
      "contractName": null,
      "contractAddress": "0x000000ca99cf8e1e53b4b7999180db3e1d032333",
      "function": "setSwapRouters(address[],bool[])",
      "arguments": [
        "[0x0000004bb8983d4E004A8fe998155f1e8ed89989]",
        "[true]"
      ],
      "transaction": {
        "from": "0xbeef63ae5a2102506e8a352a5bb32aa8b30b3112",
        "to": "0x000000ca99cf8e1e53b4b7999180db3e1d032333",
        "gas": "0x33e6a33",
        "value": "0x0",
        "input": "0xf3e17b870000000000000000000000000000000000000000000000000000000000000040000000000000000000000000000000000000000000000000000000000000008000000000000000000000000000000000000000000000000000000000000000010000000000000000000000000000004bb8983d4e004a8fe998155f1e8ed8998900000000000000000000000000000000000000000000000000000000000000010000000000000000000000000000000000000000000000000000000000000001",
        "nonce": "0x1b",
        "chainId": "0x2105"
      },
      "additionalContracts": [],
      "isFixedGasLimit": false
    },
    {
      "hash": null,
      "transactionType": "CALL",
      "contractName": null,
      "contractAddress": "0x000000ca99cf8e1e53b4b7999180db3e1d032333",
      "function": "transferOwnership(address)",
      "arguments": [
        "0x3D37E9E5Ff12c3ebBdFace34f0a1FD7A42c856ED"
      ],
      "transaction": {
        "from": "0xbeef63ae5a2102506e8a352a5bb32aa8b30b3112",
        "to": "0x000000ca99cf8e1e53b4b7999180db3e1d032333",
        "gas": "0x9c14",
        "value": "0x0",
        "input": "0xf2fde38b0000000000000000000000003d37e9e5ff12c3ebbdface34f0a1fd7a42c856ed",
        "nonce": "0x1c",
        "chainId": "0x2105"
      },
      "additionalContracts": [],
      "isFixedGasLimit": false
    }
  ],
  "receipts": [],
  "libraries": [],
  "pending": [],
  "returns": {},
  "timestamp": 1728486167,
  "chain": 8453,
  "commit": "3d83cad"
}