{
  "transactions": [
    {
      "hash": "0x758d872fbdf441f45a028eec8ff2b20f3032c6ffda3b41023027a6ecc47391d3",
      "transactionType": "CALL",
      "contractName": "Create2Deployer",
      "contractAddress": "0x13b0D85CcB8bf860b6b79AF3029fCA081AE9beF2",
      "function": "deploy(uint256,bytes32,bytes)",
      "arguments": [
        "0",
        "0x862e41240a461e611c6c023e3cf74c29b2ab80b8e2b2539de1b8b1f096922723",
        "0x6080806040523461001657610219908161001c8239f35b600080fdfe3461017e576060601435811c90602835811c90603c35811c9060503581523060405233811b602c526f23b872dd000000000000000000000000600c526000936020856064601c82885af13d156001875114171615610171578482526080604052806014527fffffffffffffffffffffffffffffffffffffffffffffffffffffffffffffffff6034526f095ea7b3000000000000000000000000918286526020866044601082895af13d1560018851141716156101645785809181603452604051827fffffffffffffffffffffffffffffffffffffffffffffffffffffffffffffff9036019283607084378135901c5af11561015b576014528360345283526020836044601082865af13d15600185511417161561014e57610130919260345261012830826101cc565b903390610183565b61013a30826101cc565b8061014157005b61014c913390610183565b005b633e3f8f7383526004601cfd5b843d81803e3d90fd5b633e3f8f7386526004601cfd5b637939f42485526004601cfd5b600080fd5b60109260209260145260345260446000938480936fa9059cbb00000000000000000000000082525af13d1560018351141716156101bf57603452565b6390b8ec1890526004601cfd5b9060209060246000809481937f70a082310000000000000000000000000000000000000000000000000000000083526004525afa15610209575190565b80fdfea164736f6c6343000814000a"
      ],
      "transaction": {
        "type": "0x02",
        "from": "0xbeef63ae5a2102506e8a352a5bb32aa8b30b3112",
        "to": "0x13b0d85ccb8bf860b6b79af3029fca081ae9bef2",
        "gas": "0x25204c",
        "value": "0x0",
        "data": "0x66cfa0570000000000000000000000000000000000000000000000000000000000000000862e41240a461e611c6c023e3cf74c29b2ab80b8e2b2539de1b8b1f096922723000000000000000000000000000000000000000000000000000000000000006000000000000000000000000000000000000000000000000000000000000002356080806040523461001657610219908161001c8239f35b600080fdfe3461017e576060601435811c90602835811c90603c35811c9060503581523060405233811b602c526f23b872dd000000000000000000000000600c526000936020856064601c82885af13d156001875114171615610171578482526080604052806014527fffffffffffffffffffffffffffffffffffffffffffffffffffffffffffffffff6034526f095ea7b3000000000000000000000000918286526020866044601082895af13d1560018851141716156101645785809181603452604051827fffffffffffffffffffffffffffffffffffffffffffffffffffffffffffffff9036019283607084378135901c5af11561015b576014528360345283526020836044601082865af13d15600185511417161561014e57610130919260345261012830826101cc565b903390610183565b61013a30826101cc565b8061014157005b61014c913390610183565b005b633e3f8f7383526004601cfd5b843d81803e3d90fd5b633e3f8f7386526004601cfd5b637939f42485526004601cfd5b600080fd5b60109260209260145260345260446000938480936fa9059cbb00000000000000000000000082525af13d1560018351141716156101bf57603452565b6390b8ec1890526004601cfd5b9060209060246000809481937f70a082310000000000000000000000000000000000000000000000000000000083526004525afa15610209575190565b80fdfea164736f6c6343000814000a0000000000000000000000",
        "nonce": "0xb",
        "accessList": []
      },
      "additionalContracts": [
        {
          "transactionType": "CREATE2",
          "address": "0x0000000095538AD2A95685330eD1268C69753BC2",
          "initCode": "6080806040523461001657610219908161001c8239f35b600080fdfe3461017e576060601435811c90602835811c90603c35811c9060503581523060405233811b602c526f23b872dd000000000000000000000000600c526000936020856064601c82885af13d156001875114171615610171578482526080604052806014527fffffffffffffffffffffffffffffffffffffffffffffffffffffffffffffffff6034526f095ea7b3000000000000000000000000918286526020866044601082895af13d1560018851141716156101645785809181603452604051827fffffffffffffffffffffffffffffffffffffffffffffffffffffffffffffff9036019283607084378135901c5af11561015b576014528360345283526020836044601082865af13d15600185511417161561014e57610130919260345261012830826101cc565b903390610183565b61013a30826101cc565b8061014157005b61014c913390610183565b005b633e3f8f7383526004601cfd5b843d81803e3d90fd5b633e3f8f7386526004601cfd5b637939f42485526004601cfd5b600080fd5b60109260209260145260345260446000938480936fa9059cbb00000000000000000000000082525af13d1560018351141716156101bf57603452565b6390b8ec1890526004601cfd5b9060209060246000809481937f70a082310000000000000000000000000000000000000000000000000000000083526004525afa15610209575190565b80fdfea164736f6c6343000814000a"
        }
      ],
      "isFixedGasLimit": false
    }
  ],
  "receipts": [
    {
      "transactionHash": "0x758d872fbdf441f45a028eec8ff2b20f3032c6ffda3b41023027a6ecc47391d3",
      "transactionIndex": "0x1",
      "blockHash": "0x7f5cb682e937f934c4081ba455a57fac85d33759f14807474baf81fb31d36ff8",
      "blockNumber": "0x7643584",
      "from": "0xbeef63AE5a2102506e8a352a5bB32aA8B30B3112",
      "to": "0x13b0D85CcB8bf860b6b79AF3029fCA081AE9beF2",
      "cumulativeGasUsed": "0x190845",
      "gasUsed": "0x190845",
      "contractAddress": null,
      "logs": [],
      "status": "0x1",
      "logsBloom": "0x00000000000000000000000000000000000000000000000000000000000000000000000000000000000000000000000000000000000000000000000000000000000000000000000000000000000000000000000000000000000000000000000000000000000000000000000000000000000000000000000000000000000000000000000000000000000000000000000000000000000000000000000000000000000000000000000000000000000000000000000000000000000000000000000000000000000000000000000000000000000000000000000000000000000000000000000000000000000000000000000000000000000000000000000000000000",
      "type": "0x2",
      "effectiveGasPrice": "0x5f5e100"
    }
  ],
  "libraries": [],
  "pending": [],
  "returns": {},
  "timestamp": 1692748425,
  "chain": 42161,
  "multi": false,
  "commit": "150b1cb"
}