{
  "transactions": [
    {
      "hash": "0xdaedb718b322f3f9174a40a9716efc4bcfc276a2452ea78a9b11f3cbcd0fa7bc",
      "transactionType": "CALL",
      "contractName": null,
      "contractAddress": "0x00000076a5feff94a54834fe1b2803a6da672e03",
      "function": "setSwapRouters(address[],bool[])",
      "arguments": [
        "[0x00000E719aEae2afAD3B00BE068b00Dc2770dc00]",
        "[true]"
      ],
      "transaction": {
        "from": "0xbeef63ae5a2102506e8a352a5bb32aa8b30b3112",
        "to": "0x00000076a5feff94a54834fe1b2803a6da672e03",
        "value": "0x0",
        "input": "0xf3e17b8700000000000000000000000000000000000000000000000000000000000000400000000000000000000000000000000000000000000000000000000000000080000000000000000000000000000000000000000000000000000000000000000100000000000000000000000000000e719aeae2afad3b00be068b00dc2770dc0000000000000000000000000000000000000000000000000000000000000000010000000000000000000000000000000000000000000000000000000000000001",
        "nonce": "0x1b",
        "chainId": "0x38"
      },
      "additionalContracts": [],
      "isFixedGasLimit": false
    },
    {
      "hash": null,
      "transactionType": "CALL",
      "contractName": null,
      "contractAddress": "0x00000076a5feff94a54834fe1b2803a6da672e03",
      "function": "transferOwnership(address)",
      "arguments": [
        "0xd113eA7cCF2fEf911acc4E7d960A2eA8f09816d2"
      ],
      "transaction": {
        "from": "0xbeef63ae5a2102506e8a352a5bb32aa8b30b3112",
        "to": "0x00000076a5feff94a54834fe1b2803a6da672e03",
        "gas": "0x1f3a0f5",
        "value": "0x0",
        "input": "0xf2fde38b000000000000000000000000d113ea7ccf2fef911acc4e7d960a2ea8f09816d2",
        "nonce": "0x1c",
        "chainId": "0x38"
      },
      "additionalContracts": [],
      "isFixedGasLimit": true
    }
  ],
  "receipts": [
    {
      "status": "0x1",
      "cumulativeGasUsed": "0xa2857f",
      "logs": [
        {
          "address": "0x00000076a5feff94a54834fe1b2803a6da672e03",
          "topics": [
            "0xb398a28fa151438e6fbfb63bb5dcf5aab5446ef8c4274546890ea394dc1993e2"
          ],
          "data": "0x00000000000000000000000000000000000000000000000000000000000000400000000000000000000000000000000000000000000000000000000000000080000000000000000000000000000000000000000000000000000000000000000100000000000000000000000000000e719aeae2afad3b00be068b00dc2770dc0000000000000000000000000000000000000000000000000000000000000000010000000000000000000000000000000000000000000000000000000000000001",
          "blockHash": "0xa614926e560092541c88fd660603e35cccb9a400a5627edbd926ea734a1082d9",
          "blockNumber": "0x28f6f2f",
          "transactionHash": "0xdaedb718b322f3f9174a40a9716efc4bcfc276a2452ea78a9b11f3cbcd0fa7bc",
          "transactionIndex": "0x3c",
          "logIndex": "0xac",
          "removed": false
        }
      ],
      "logsBloom": "0x00000000000000000000000004000000000000000000000000000000000000000000000000000000000000000000000000000000000000000000000000000000000000000000000000000000000000000000000000000000000000000000000000000000000000000000000000000000000000000000000000000000000000000000000000000000000000000000000000000000000000000000000000000000000000100000000000000000000000000000000000000000000000000020000000000000000000000000000000000000001000000000000000000000000000000000000000000004000000000000000000000000000000000000000000040000",
      "type": "0x0",
      "transactionHash": "0xdaedb718b322f3f9174a40a9716efc4bcfc276a2452ea78a9b11f3cbcd0fa7bc",
      "transactionIndex": "0x3c",
      "blockHash": "0xa614926e560092541c88fd660603e35cccb9a400a5627edbd926ea734a1082d9",
      "blockNumber": "0x28f6f2f",
      "gasUsed": "0x204232",
      "effectiveGasPrice": "0x3b9aca00",
      "from": "0xbeef63ae5a2102506e8a352a5bb32aa8b30b3112",
      "to": "0x00000076a5feff94a54834fe1b2803a6da672e03",
      "contractAddress": null
    }
  ],
  "libraries": [],
  "pending": [],
  "returns": {},
  "timestamp": 1728443487,
  "chain": 56,
  "commit": "bc739ac"
}