{
  "transactions": [
    {
      "hash": "0xb6a03127afb49e270c3fbca92f673ae3de8834ec80818589540ce6302f45b5f8",
      "transactionType": "CALL",
      "contractName": null,
      "contractAddress": "0x00000070ee937917c1d9bd91729ce1dd9a77d8e3",
      "function": "setSwapRouters(address[],bool[])",
      "arguments": [
        "[0x00000000063E0E1E06A0FE61e16bE8Bdec1BEA31]",
        "[true]"
      ],
      "transaction": {
        "from": "0xbeef63ae5a2102506e8a352a5bb32aa8b30b3112",
        "to": "0x00000070ee937917c1d9bd91729ce1dd9a77d8e3",
        "value": "0x0",
        "input": "0xf3e17b8700000000000000000000000000000000000000000000000000000000000000400000000000000000000000000000000000000000000000000000000000000080000000000000000000000000000000000000000000000000000000000000000100000000000000000000000000000000063e0e1e06a0fe61e16be8bdec1bea3100000000000000000000000000000000000000000000000000000000000000010000000000000000000000000000000000000000000000000000000000000001",
        "nonce": "0xa",
        "chainId": "0x89"
      },
      "additionalContracts": [],
      "isFixedGasLimit": false
    },
    {
      "hash": "0x4648c9dcb812f62a9be1e65787e1104c606cab4ce3806d377baa5677c10b5836",
      "transactionType": "CALL",
      "contractName": null,
      "contractAddress": "0x00000070ee937917c1d9bd91729ce1dd9a77d8e3",
      "function": "transferOwnership(address)",
      "arguments": [
        "0xD51f78EC33D10Ae32dDA96ef00318C637077a292"
      ],
      "transaction": {
        "from": "0xbeef63ae5a2102506e8a352a5bb32aa8b30b3112",
        "to": "0x00000070ee937917c1d9bd91729ce1dd9a77d8e3",
        "value": "0x0",
        "input": "0xf2fde38b000000000000000000000000d51f78ec33d10ae32dda96ef00318c637077a292",
        "nonce": "0xb",
        "chainId": "0x89"
      },
      "additionalContracts": [],
      "isFixedGasLimit": false
    }
  ],
  "receipts": [
    {
      "status": "0x1",
      "cumulativeGasUsed": "0x6d7e95",
      "logs": [
        {
          "address": "0x00000070ee937917c1d9bd91729ce1dd9a77d8e3",
          "topics": [
            "0xb398a28fa151438e6fbfb63bb5dcf5aab5446ef8c4274546890ea394dc1993e2"
          ],
          "data": "0x00000000000000000000000000000000000000000000000000000000000000400000000000000000000000000000000000000000000000000000000000000080000000000000000000000000000000000000000000000000000000000000000100000000000000000000000000000000063e0e1e06a0fe61e16be8bdec1bea3100000000000000000000000000000000000000000000000000000000000000010000000000000000000000000000000000000000000000000000000000000001",
          "blockHash": "0xe89359f49b5b17d608f75d5e4b3fa3d4a479514c08c36b8b1698965932c0216d",
          "blockNumber": "0x3be5af4",
          "transactionHash": "0xb6a03127afb49e270c3fbca92f673ae3de8834ec80818589540ce6302f45b5f8",
          "transactionIndex": "0x28",
          "logIndex": "0xa8",
          "removed": false
        },
        {
          "address": "0x0000000000000000000000000000000000001010",
          "topics": [
            "0x4dfe1bbbcf077ddc3e01291eea2d5c70c2b422b415d95645b9adcfd678cb1d63",
            "0x0000000000000000000000000000000000000000000000000000000000001010",
            "0x000000000000000000000000beef63ae5a2102506e8a352a5bb32aa8b30b3112",
            "0x000000000000000000000000c84c1e8dffe81c8f69f2b655557ef57d5b46beb5"
          ],
          "data": "0x00000000000000000000000000000000000000000000000000e1d910ad797eca00000000000000000000000000000000000000000000000113a125291be879040000000000000000000000000000000000000000000001347a8f6ba5f1e44c3700000000000000000000000000000000000000000000000112bf4c186e6efa3a0000000000000000000000000000000000000000000001347b7144b69f5dcb01",
          "blockHash": "0xe89359f49b5b17d608f75d5e4b3fa3d4a479514c08c36b8b1698965932c0216d",
          "blockNumber": "0x3be5af4",
          "transactionHash": "0xb6a03127afb49e270c3fbca92f673ae3de8834ec80818589540ce6302f45b5f8",
          "transactionIndex": "0x28",
          "logIndex": "0xa9",
          "removed": false
        }
      ],
      "logsBloom": "0x00000000000000000000000000000000000000010000000000000000000000000000100000000000000000000000000000008000000000000000000000000000000000000000000000000000000000800000800000000000000100000000000000000000000000000000000000000000000000000000000080000000000000000000000000000000000000000000000080000000000000000000000000000000200000100000000000000000000000000004000000000000002400000020004000000000000000000001000000000000000000000000000000100000000000000000880000000004000000000000000000000000000000000000000000100000",
      "type": "0x2",
      "transactionHash": "0xb6a03127afb49e270c3fbca92f673ae3de8834ec80818589540ce6302f45b5f8",
      "transactionIndex": "0x28",
      "blockHash": "0xe89359f49b5b17d608f75d5e4b3fa3d4a479514c08c36b8b1698965932c0216d",
      "blockNumber": "0x3be5af4",
      "gasUsed": "0x204225",
      "effectiveGasPrice": "0x7004fcab8",
      "from": "0xbeef63ae5a2102506e8a352a5bb32aa8b30b3112",
      "to": "0x00000070ee937917c1d9bd91729ce1dd9a77d8e3",
      "contractAddress": null
    },
    {
      "status": "0x1",
      "cumulativeGasUsed": "0x7f9a81",
      "logs": [
        {
          "address": "0x00000070ee937917c1d9bd91729ce1dd9a77d8e3",
          "topics": [
            "0x8be0079c531659141344cd1fd0a4f28419497f9722a3daafe3b4186f6b6457e0",
            "0x000000000000000000000000beef63ae5a2102506e8a352a5bb32aa8b30b3112",
            "0x000000000000000000000000d51f78ec33d10ae32dda96ef00318c637077a292"
          ],
          "data": "0x",
          "blockHash": "0x79699b28bd4159d73d84fa16da7adb8d6648019d76c4aec57b5dc602111d4be4",
          "blockNumber": "0x3be5af9",
          "transactionHash": "0x4648c9dcb812f62a9be1e65787e1104c606cab4ce3806d377baa5677c10b5836",
          "transactionIndex": "0x35",
          "logIndex": "0x10c",
          "removed": false
        },
        {
          "address": "0x0000000000000000000000000000000000001010",
          "topics": [
            "0x4dfe1bbbcf077ddc3e01291eea2d5c70c2b422b415d95645b9adcfd678cb1d63",
            "0x0000000000000000000000000000000000000000000000000000000000001010",
            "0x000000000000000000000000beef63ae5a2102506e8a352a5bb32aa8b30b3112",
            "0x000000000000000000000000c84c1e8dffe81c8f69f2b655557ef57d5b46beb5"
          ],
          "data": "0x0000000000000000000000000000000000000000000000000003162e2c98f83a00000000000000000000000000000000000000000000000112bf4c18271cbc6c000000000000000000000000000000000000000000000134a31f935acc319fcf00000000000000000000000000000000000000000000000112bc35e9fa83c432000000000000000000000000000000000000000000000134a322a988f8ca9809",
          "blockHash": "0x79699b28bd4159d73d84fa16da7adb8d6648019d76c4aec57b5dc602111d4be4",
          "blockNumber": "0x3be5af9",
          "transactionHash": "0x4648c9dcb812f62a9be1e65787e1104c606cab4ce3806d377baa5677c10b5836",
          "transactionIndex": "0x35",
          "logIndex": "0x10d",
          "removed": false
        }
      ],
      "logsBloom": "0x00000000000000000000000000000000000000010000000000800000000000000000100000000000000000000000000000008000000000000000000000000000000000000000000000000000000000800001800000000000000100000000000000000000000000000000000000000000000000000000000080000000000000400000000000000000000000000000000080000000000000000000000000000000200000000000000000000000000000000104000000000000002400000000004000000000000000000001000000000000000000000000000000100000000000000000880000000000000000000000000000002000000010000000000000100000",
      "type": "0x2",
      "transactionHash": "0x4648c9dcb812f62a9be1e65787e1104c606cab4ce3806d377baa5677c10b5836",
      "transactionIndex": "0x35",
      "blockHash": "0x79699b28bd4159d73d84fa16da7adb8d6648019d76c4aec57b5dc602111d4be4",
      "blockNumber": "0x3be5af9",
      "gasUsed": "0x70dd",
      "effectiveGasPrice": "0x7004fca98",
      "from": "0xbeef63ae5a2102506e8a352a5bb32aa8b30b3112",
      "to": "0x00000070ee937917c1d9bd91729ce1dd9a77d8e3",
      "contractAddress": null
    }
  ],
  "libraries": [],
  "pending": [],
  "returns": {},
  "timestamp": 1728438412,
  "chain": 137,
  "commit": "bc739ac"
}