{
  "transactions": [
    {
      "hash": "0xa1d25e574208a0decd76b28360cb47225c621c08ca39844af8381572e11e29bc",
      "transactionType": "CALL",
      "contractName": null,
      "contractAddress": "0x00000075cd3dad5805699d0e1c5734e27b3264e3",
      "function": "setSwapRouters(address[],bool[])",
      "arguments": [
        "[0x039eC83141218fC68bd85E0067d696769E0576bf]",
        "[true]"
      ],
      "transaction": {
        "from": "0xbeef63ae5a2102506e8a352a5bb32aa8b30b3112",
        "to": "0x00000075cd3dad5805699d0e1c5734e27b3264e3",
        "gas": "0xd001a1",
        "value": "0x0",
        "input": "0xf3e17b87000000000000000000000000000000000000000000000000000000000000004000000000000000000000000000000000000000000000000000000000000000800000000000000000000000000000000000000000000000000000000000000001000000000000000000000000039ec83141218fc68bd85e0067d696769e0576bf00000000000000000000000000000000000000000000000000000000000000010000000000000000000000000000000000000000000000000000000000000001",
        "nonce": "0xd8",
        "chainId": "0xa86a"
      },
      "additionalContracts": [],
      "isFixedGasLimit": false
    },
    {
      "hash": "0x840a127e39633e8f2b3d886c054bdb567a99e920d3b8c00ae80e0e32e50c586b",
      "transactionType": "CALL",
      "contractName": null,
      "contractAddress": "0x00000075cd3dad5805699d0e1c5734e27b3264e3",
      "function": "transferOwnership(address)",
      "arguments": [
        "0x30590dBBB8127e657d9341FA91356A838D88CBA8"
      ],
      "transaction": {
        "from": "0xbeef63ae5a2102506e8a352a5bb32aa8b30b3112",
        "to": "0x00000075cd3dad5805699d0e1c5734e27b3264e3",
        "gas": "0xa521",
        "value": "0x0",
        "input": "0xf2fde38b00000000000000000000000030590dbbb8127e657d9341fa91356a838d88cba8",
        "nonce": "0xd9",
        "chainId": "0xa86a"
      },
      "additionalContracts": [],
      "isFixedGasLimit": false
    }
  ],
  "receipts": [
    {
      "status": "0x1",
      "cumulativeGasUsed": "0xcd2539",
      "logs": [
        {
          "address": "0x00000075cd3dad5805699d0e1c5734e27b3264e3",
          "topics": [
            "0xb398a28fa151438e6fbfb63bb5dcf5aab5446ef8c4274546890ea394dc1993e2"
          ],
          "data": "0x000000000000000000000000000000000000000000000000000000000000004000000000000000000000000000000000000000000000000000000000000000800000000000000000000000000000000000000000000000000000000000000001000000000000000000000000039ec83141218fc68bd85e0067d696769e0576bf00000000000000000000000000000000000000000000000000000000000000010000000000000000000000000000000000000000000000000000000000000001",
          "blockHash": "0xc363713ff1e6688b3890be2440b968c08592d31cc1fad20bbae2a2d5f8337eef",
          "blockNumber": "0x3125d2a",
          "transactionHash": "0xa1d25e574208a0decd76b28360cb47225c621c08ca39844af8381572e11e29bc",
          "transactionIndex": "0x0",
          "logIndex": "0x0",
          "removed": false
        }
      ],
      "logsBloom": "0x00000000000000000000000000000000000000000000000000000000000000000000000000000000000000000000000000000000000000000200000000000000000000000000000000000000000000000000000000000000000000000000000000000000800000000000000000000000000000000000000000000000000000000000000000000000000000000000000000000000000000000000000000000000000000100000000000000000000000000000000000000000000000000020000000000000000000000000080000000000000000000000000000000000000000000000000000000004000000000000000000000000000000000000000000000000",
      "type": "0x2",
      "transactionHash": "0xa1d25e574208a0decd76b28360cb47225c621c08ca39844af8381572e11e29bc",
      "transactionIndex": "0x0",
      "blockHash": "0xc363713ff1e6688b3890be2440b968c08592d31cc1fad20bbae2a2d5f8337eef",
      "blockNumber": "0x3125d2a",
      "gasUsed": "0xcd2539",
      "effectiveGasPrice": "0x649534e00",
      "from": "0xbeef63ae5a2102506e8a352a5bb32aa8b30b3112",
      "to": "0x00000075cd3dad5805699d0e1c5734e27b3264e3",
      "contractAddress": null
    }
  ],
  "libraries": [],
  "pending": [],
  "returns": {},
  "timestamp": 1728425889,
  "chain": 43114,
  "commit": "bc739ac"
}